:10018C00751900751A01E4F51BF51C1200038F1E7E
:10019C00E51E60F7C3940A4003E4F51EC3E51C9406
:1001AC0004E51B94005032AE1FAF207C007D0A1278
:1001BC00033D8E1F8F20E51EFD2520F520EC351FFD
:1001CC00F51FAF1A1202B2051AE51A7002051905CD
:1001DC001CE51C70B6051B80B2E51E70AEE520B4A4
:1001EC00AE1EE51FB408197D0A7C007F071202B20F
:1001FC00E4F51FF520F51BF51CF519751A01808B1C
:10020C007D0F7C007F081202B2E4F51FF520F51B70
:0A021C00F51CF519751A010201978F
:10031500EF4E600F7D027CEFDCFEDDFCEF1F70F021
:030325001E80ED4A
:0103280022B2
:10000300E4F51D7590FFC2942090137F14FE120334
:10001300153090FD7F147E00120315751D0120918C
:10002300147F147E001203153091FD7F147E00129D
:100033000315751D052092147F147E0012031530DD
:1000430092FD7F147E00120315751D092093147F02
:10005300147E001203153093FD7F147E00120315E6
:10006300751D0D7590FFC2952090147F147E0012AC
:1000730003153090FD7F147E00120315751D0220B9
:1000830091147F147E001203153091FD7F147E00BE
:10009300120315751D062092147F147E001203159A
:1000A3003092FD7F147E00120315751D0A209314F0
:1000B3007F147E001203153093FD7F147E0012031C
:1000C30015751D0E7590FFC2962090147F147E0047
:1000D3001203153090FD7F147E00120315751D0366
:1000E3002091147F147E001203153091FD7F147E3E
:1000F30000120315751D072092147F147E0012034E
:10010300153092FD7F147E00120315751D0B20938D
:10011300147F147E001203153093FD7F147E0012AA
:100123000315751D0F7590FFC2972090147F147EE1
:10013300001203153090FD7F147E00120315751D08
:10014300042091147F147E001203153091FD7F1457
:100153007E00120315751D082092147F147E001271
:1001630003153092FD7F147E00120315751D0C20BC
:1001730093147F147E001203153093FD7F147E00C9
:08018300120315751D10AF1DDC
:01018B002251
:1003290011083F065B4F666D7D077F6F777C395EED
:03033900797100D7
:1002B200EF14B4080050549002C775F003A4C5832C
:1002C20025F0C583730202DF0202E30202EB02029F
:1002D200EF0202F70202FB020303020307C2A0803D
:1002E20002D2A0C2A1C2A28022C2A08002D2A0D207
:1002F200A1C2A28016C2A08002D2A0C2A1D2A280B4
:100302000AC2A08002D2A0D2A1D2A274082DF8E61D
:03031200F5802251
:03000000020226D3
:0C022600787FE4F6D8FD75812002026D9F
:10033D00EF8DF0A4A8F0CF8CF0A428CE8DF0A42ED4
:02034D00FE228E
:1002320002018CE493A3F8E493A34003F68001F255
:1002420008DFF48029E493A3F85407240CC8C333CD
:10025200C4540F4420C8834004F456800146F6DF9C
:10026200E4800B0102040810204080900329E47E00
:10027200019360BCA3FF543F30E509541FFEE49391
:10028200A360010ECF54C025E060A840B8E493A358
:10029200FAE493A3F8E493A3C8C582C8CAC583CA83
:1002A200F0A3C8C582C8CAC583CADFE9DEE780BE3B
:01033C0000C0
:00000001FF
