:100045000000000000000000FF1010FF000E151555
:100055000D00FF010200FF0102000609090600FD6F
:1000650000000000000000003C42A98585A9423C33
:100075003C42A58585A5423C3C42A58989A5423CD3
:10000300E4F508F509F50A1200E3E4F508E5082527
:100013000990006D93FD7C00AF081200850508E58B
:1000230008C3940840E7050AE50AD3940F40DBE4CC
:10003300F50A74082509F509D3941040CDE4F509B0
:0200430080C873
:1000C300EF4E600F7D027CEFDCFEDDFCEF1F70F076
:0300D3001E80ED9F
:0100D6002207
:1000A700E4FEEFA806088002C313D8FC1392B4D26B
:0B00B700B6C2B60EBE08EBD2B5C2B553
:0100C200221B
:10008500AB07AF051200A7AF037480A8070880026D
:10009500C313D8FCF4F5807F017E001200C3758080
:0200A500FF2238
:0500E300C2B5C2B62207
:030000000200D724
:0C00D700787FE4F6D8FD75810A02000372
:00000001FF
