:10023E0011083F065B4F666D7D077F6F777C395ED9
:03024E00797100C3
:10015700EF14B40800505490016C75F003A4C583E4
:1001670025F0C58373020184020188020190020110
:100177009402019C0201A00201A80201ACC2A08066
:1001870002D2A0C2A1C2A28022C2A08002D2A0D263
:10019700A1C2A28016C2A08002D2A0C2A1D2A28010
:1001A7000AC2A08002D2A0D2A1D2A274082DF8E67A
:0301B700F58022AE
:04025100021900008E
:10020D0075800112025612000E8F1BE51BB4010AF8
:10021D00051CE51CB40203E4F51CE51BB40202B297
:10022D0081E51BB40302B282E51BB404D9B283800D
:01023D00D5EB
:03000B000201BA35
:0B01BA00C0E0C0D075D000C000C0073E
:1001C500051AE51A7002051964F47004E51964014D
:1001D5007027F519F51AE51C700DAF807801EF0849
:1001E500800123D8FDF580E51CB4010DAF807801B1
:0F01F500EF08800103D8FDF580758CFC758A1723
:09020400D007D000D0D0D0E032C8
:100256005389F0438901758A20758CD1C28DD28C61
:0602660075A882C2B92256
:10000E00E4F51D2090137F14FE12026C3090FD7FDC
:10001E00147E0012026C751D012091147F147E0057
:10002E0012026C3091FD7F147E0012026C751D025F
:10003E002092147F147E0012026C3092FD7F147E8B
:10004E000012026C751D032093147F147E001202A1
:10005E006C3093FD7F147E0012026C751D0420948B
:10006E00147F147E0012026C3094FD7F147E0012F9
:10007E00026C751D052095147F147E0012026C30E3
:10008E0095FD7F147E0012026C751D062096147F5E
:10009E00147E0012026C3096FD7F147E0012026CEC
:1000AE00751D072097147F147E0012026C3097FD89
:0C00BE007F147E0012026C751D08AF1D3F
:0100CA002213
:10026C00EF4E600F7D027CEFDCFEDDFCEF1F70F0CB
:03027C001E80EDF4
:01027F00225C
:030000000200CB30
:0C00CB00787FE4F6D8FD75811D0201125B
:1000D70002020DE493A3F8E493A34003F68001F230
:1000E70008DFF48029E493A3F85407240CC8C3332A
:1000F700C4540F4420C8834004F456800146F6DFF9
:10010700E4800B010204081020408090023EE47E48
:10011700019360BCA3FF543F30E509541FFEE493ED
:10012700A360010ECF54C025E060A840B8E493A3B4
:10013700FAE493A3F8E493A3C8C582C8CAC583CADF
:10014700F0A3C8C582C8CAC583CADFE9DEE780BE97
:0102550000A8
:00000001FF
