:10007300E4FEEFA806088002C313D8FC1392B4D29F
:0B008300B6C2B60EBE08EBD2B5C2B587
:01008E00224F
:10005100AB07AF05120073AF037480A807088002D5
:10006100C313D8FCF4F5807F017E0012008F7580E8
:02007100FF226C
:10000300C2B5C2B67D3C7C00E4FF1200517D427C48
:10001300007F011200517DA97C007F021200517DF7
:10002300857C007F031200517D857C007F041200D4
:10003300517DA97C007F051200517D427C007F0623
:0E0043001200517D3C7C007F0712005180B6F8
:10008F00EF4E600F7D027CEFDCFEDDFCEF1F70F0AA
:03009F001E80EDD3
:0100A200223B
:030000000200A358
:0C00A300787FE4F6D8FD758107020003A9
:00000001FF
