:10012D0011083F065B4F666D7D077F6F777C395EEB
:03013D00797100D5
:10011900EF4E600F7D027CEFDCFEDDFCEF1F70F01F
:030129001E80ED48
:01012C0022B0
:10008F00EF14B4080050549000A475F003A4C58376
:10009F0025F0C583730200BC0200C00200C8020035
:1000AF00CC0200D40200D80200E00200E4C290802B
:1000BF0002D290C291C2928022C2908002D290D27C
:1000CF0091C2928016C2908002D290C291D2928039
:1000DF000AC2908002D290D291D29274082DF8E683
:0D00EF00F5807F017E00120119E4F58022EA
:1000FC007D017C007F0112008F7D027C007F02124B
:0D010C00008F7D037C007F0312008F80E3D5
:03000000020003F8
:0C000300787FE4F6D8FD75811802004AF1
:10000F000200FCE493A3F8E493A34003F68001F20B
:10001F0008DFF48029E493A3F85407240CC8C333F2
:10002F00C4540F4420C8834004F456800146F6DFC1
:10003F00E4800B010204081020408090012DE47E23
:10004F00019360BCA3FF543F30E509541FFEE493B6
:10005F00A360010ECF54C025E060A840B8E493A37D
:10006F00FAE493A3F8E493A3C8C582C8CAC583CAA8
:10007F00F0A3C8C582C8CAC583CADFE9DEE780BE60
:0101400000BE
:00000001FF
