:1005100020202D20202D20200020203A20203A20AD
:020520002000B9
:10027A001204E87BFF7A0579107D017F011204746C
:10028A007BFF7A0579197D017F0212047412054FEA
:10029A001200031200BAE518FB7A00750C027D0100
:1002AA007F011204B5E519FB7A00750C027D047F03
:1002BA00011204B5E51AFB7A00750C027D077F016D
:1002CA001204B5E51BFB7A00750C027D017F021250
:1002DA0004B5E51CFB7A00750C027D047F0212044A
:1002EA00B5E51DFB7A00750C027D077F021204B585
:0202FA0080A1E1
:06052200C2A58F80D2A7E4
:080528007F027EEFDEFEDFFC26
:0105300022A8
:0A053100C2A6120522C2A702052887
:10049700CFCDCFCECCCE1201997C007D0A12019927
:0404A700ED2430FF11
:0A04AB00D2A6120522C2A7020528FE
:1004D200AE07BE0104ED148006BE0209ED243F44BE
:0604E20080FF120531222B
:1004E8007F381205317F0C1205317F061205317FE6
:0404F80001020531C7
:0A053B00AC031204D2AF040204ABBB
:060474008B088A09890AC9
:10047A001204D2E4FDAB08AA09A90A8D8275830089
:0C048A0012015AFF60061204AB0D80E95D
:010496002243
:0C0441007F0AEA24FFFDE434FFFC7E008B
:08044D008E0D8F0E8C0F8D1037
:100455007F017E00E4FBEBC39510E50F6480F87423
:0E0465008098500AAC0DAD0E1201870B80E896
:010473002266
:0404B5008A0A8B0B19
:1004B9001204D2AA0CEAD39400400D120441AC0AEA
:0804C900AD0B1204971A80ED3F
:0104D1002208
:100396001204D2C3EA64809480400B7F2B1204AB14
:1003A6008A168B17800E7F2D1204ABC3E49BF517BC
:1003B600E49AF516AA15EAD39400400D120441AC4E
:0903C60016AD171204971A80ED20
:0103CF00220B
:0403D0008A218B22D1
:1003D4001204D2AA23EAD3940040297F10120443C2
:1003E400AC21AD22CFCDCFCECCCE120199EF540F9C
:1003F400FEC3940AEE5004243080022437FF120412
:04040400AB1A80D1DE
:0104080022D1
:040409008A268B278D
:10040D001204D2AA28EAD394004028EA24FFFDE47E
:10041D0034FFFC7F027E0012044DAC26AD27CFCDFC
:10042D00CFCECCCE120199EF54012430FF1204AB84
:03043D001A80D250
:010440002299
:090545000718160C09010C37051A
:05054F00C2B5C2B62296
:0302FC0025F0FDED
:0202FF00A9074D
:10030100D2B5E4FB74017E00A803088005C333CE97
:1003110033CED8F9FFE9F582EF558224FF92B4D2AA
:10032100B6C2B60BBB08DDE4FB74017E00A803086E
:100331008005C333CE33CED8F9FFEDF582EF558278
:0E03410024FF92B4D2B6C2B60BBB08DDC2B523
:01034F00228B
:08035000C4540F75F00AA4FC6F
:10035800E4FE430701D2B5FDEFA805088002C313E8
:10036800D8FC1392B4C2B6D2B60DBD08EBE4FDD2E8
:10037800B6C2B630B40D7401A805088002C333D8DC
:0D038800FC42060DBD08E8C2B5C2B4AF06C8
:010395002245
:10000300E4FD7F8E1202FFE51875F00A84C454F0F4
:10001300FFE51875F00A84EF7F8C1202FCE5197571
:10002300F00A84C454F0FFE51975F00A84EF7F8861
:100033001202FCE51A75F00A84C454F0FFE51A7540
:10004300F00A84EF25F0FD7F861202FFE51B75F0B1
:100053000A84C454F0FFE51B75F00A84EF25F0FD14
:100063007F841202FFE51C75F00A84C454F0FFE597
:100073001C75F00A84EF25F0FD7F821202FFE51D57
:1000830075F00A84C454F0FFE51D75F00A84EF256A
:10009300F0FD7F801202FFE51E75F00A84C454F060
:1000A300FFE51E75F00A84EF25F0FD7F8A1202FF3B
:0700B3007D807F8E0202FF39
:1000BA007F8C120358EF7F8C120350EF540F2CF5EC
:1000CA00187F88120358EF7F88120350EF540F2CC1
:1000DA00F5197F86120358EFC4540F75F00AA4FC71
:1000EA007F86120358EF540F2CF51A7F8412035897
:1000FA00EFC4540F75F00AA4FC7F84120358EF541E
:10010A000F2CF51B7F82120358EFC4540F75F00AA7
:10011A00A4FC7F82120358EF540F2CF51C7F801227
:10012A000358EFC4540F75F00AA4FC7F80120358D9
:10013A00EF540F2CF51D7F8A120358EFC4540F7524
:10014A00F00AA4FC7F8A120358EF540F2CF51E22E2
:1004FC00EF4E600F7D027CEFDCFEDDFCEF1F70F039
:03050C001E80ED61
:01050F0022C9
:030000000201EE0C
:0C01EE00787FE4F6D8FD75812802023508
:10015A00BB010CE58229F582E5833AF583E022505A
:10016A0006E92582F8E622BBFE06E92582F8E222A4
:0D017A00E58229F582E5833AF583E49322BE
:10018700EF8DF0A4A8F0CF8CF0A428CE8DF0A42E8C
:02019700FE2246
:10019900BC000BBE0029EF8DF084FFADF022E4CC4A
:1001A900F875F008EF2FFFEE33FEEC33FCEE9DEC13
:1001B900984005FCEE9DFE0FD5F0E9E4CEFD22ED59
:1001C900F8F5F0EE8420D21CFEADF075F008EF2FA3
:1001D900FFED33FD4007985006D5F0F222C398FD94
:0501E9000FD5F0EA2231
:1001FA0002027AE493A3F8E493A34003F68001F29F
:10020A0008DFF48029E493A3F85407240CC8C33305
:10021A00C4540F4420C8834004F456800146F6DFD4
:10022A00E4800B0102040810204080900545E47E1A
:10023A00019360BCA3FF543F30E509541FFEE493C9
:10024A00A360010ECF54C025E060A840B8E493A390
:10025A00FAE493A3F8E493A3C8C582C8CAC583CABB
:10026A00F0A3C8C582C8CAC583CADFE9DEE780BE73
:01054E0000AC
:00000001FF
