:0402F200525443001F
:100264001202967BFF7A0279F27D017F0112020667
:0C0274001202ED7D037F801201D380FE9A
:0602BE00C2A58F80D2A74B
:0802C4007F027EEFDEFEDFFC8D
:0102CC00220F
:0A02D900C2A61202BEC2A70202C4B0
:10022900CFCDCFCECCCE1200427C007D0A12004247
:04023900ED2430FF81
:0A023D00D2A61202BEC2A70202C43C
:10028000AE07BE0104ED148006BE0209ED243F4412
:0602900080FF1202D922DA
:100296007F381202D97F0C1202D97F061202D97F4B
:0402A600010202D976
:0A02E300AC03120280AF0402023DDA
:060206008B228A238924EB
:10020C00120280E4FDAB22AA23A9248D82758300FF
:0C021C00120003FF600612023D0D80E995
:0102280022B3
:0C01A0007F0AEA24FFFDE434FFFC7E002F
:0801AC008E1E8F1F8C208D2197
:1001B4007F017E00E4FBEBC39521E5206480F874A5
:0E01C4008098500AAC1EAD1F1200300B80E870
:0101D200220A
:040247008A118B127B
:10024B00120280AA13EAD39400400D1201A0AC1144
:08025B00AD121202291A80ED18
:010263002278
:1000F500120280C3EA64809480400B7F2B12023D7C
:100105008A0D8B0E800E7F2D12023DC3E49BF50EEA
:10011500E49AF50DAA0CEAD39400400D1201A0ACA7
:090125000DAD0E1202291A80ED45
:01012E0022AE
:04012F008A168B178A
:10013300120280AA18EAD3940040297F101201A268
:10014300AC16AD17CFCDCFCECCCE120042EF540FAD
:10015300FEC3940AEE5004243080022437FF1202B7
:040163003D1A80D1F0
:010167002275
:040168008A1B8B1C47
:10016C00120280AA1DEAD394004028EA24FFFDE481
:10017C0034FFFC7F027E001201ACAC1BAD1CCFCD5A
:10018C00CFCECCCE120042EF54012430FF12023DF0
:03019C001A80D2F4
:01019F00223D
:0502ED00C2B5C2B622FB
:1001D300D2B5E4FEEFA806088002C333D8FC13921D
:1001E300B4D2B6C2B60EBE08EBE4FEEDA806088094
:1001F30002C333D8FC1392B4D2B6C2B60EBE08EB18
:02020300C2B582
:0102050022D6
:10009700E4FDF526430701D2B5EFA805088002C3A2
:1000A70033D8FC1392B4C2B6D2B60DBD08EBE4FD4B
:1000B700D2B6C2B630B41EE5267012047E00A8057B
:1000C700088005C333CE33CED8F94E60047F018054
:1000D700027F008F260DBD08D7C2B5C2B4E526FB47
:0E00E7007A007513037D017F0212024780EF3D
:1002AA00EF4E600F7D027CEFDCFEDDFCEF1F70F08D
:0302BA001E80EDB6
:0102BD00221E
:030000000202CD2C
:0C02CD00787FE4F6D8FD758126020264FB
:10000300BB010CE58229F582E5833AF583E02250B2
:1000130006E92582F8E622BBFE06E92582F8E222FC
:0D002300E58229F582E5833AF583E4932216
:10003000EF8DF0A4A8F0CF8CF0A428CE8DF0A42EE4
:02004000FE229E
:10004200BC000BBE0029EF8DF084FFADF022E4CCA2
:10005200F875F008EF2FFFEE33FEEC33FCEE9DEC6B
:10006200984005FCEE9DFE0FD5F0E9E4CEFD22EDB1
:10007200F8F5F0EE8420D21CFEADF075F008EF2FFB
:10008200FFED33FD4007985006D5F0F222C398FDEC
:050092000FD5F0EA2289
:00000001FF
