:10006B00EF4E600F7D027CEFDCFEDDFCEF1F70F0CE
:03007B001E80EDF7
:01007E00225F
:08001B00E4F58012000380FEF1
:03002300020026B2
:10002600C0E0C0F0C083C082C0D075D000C000C0A0
:1000360001C002C003C004C005C006C00730980A4C
:10004600859980AF9912008BC298D007D006D0054B
:10005600D004D003D002D001D000D0D0D082D0833B
:05006600D0F0D0E032F3
:1000030075985043878053890F438920758DF37505
:080013008BF375A890D28E2238
:08008B008F993099FDC2992202
:0300000002007F7C
:0C007F00787FE4F6D8FD75810702001BB5
:00000001FF
