:1009700020200020202D20202D20200020203A2083
:05098000203A202000D8
:0409BC00021F000016
:03000B00020843A5
:09084300C0E0C0D075D000C00770
:10084C000520E5207002051FB4F417E51FB4011252
:10085C00E52370047F0180027F008F23751F0075D4
:08086C002000758CFC758A1850
:07087400D007D0D0D0E03224
:10067A0012054EE518FB3395E0FA750C027D017FF1
:10068A0001120927E519FB3395E0FA750C027D047E
:10069A007F01120927E51AFB3395E0FA750C027DF2
:1006AA00077F01120927E51BFB3395E0FA750C0257
:1006BA007D017F02120927E51CFB3395E0FA750CD0
:1006CA00027D047F02120927E51DFB3395E0FA75C6
:0906DA000C027D077F02020927D2
:10000E00E524B4020B0521E52175F0068485F02167
:10001E00E524640360030200E774182521F806E561
:10002E001875F06412049885F018D3E5196480945D
:10003E008C4003751901E51964016023E519640309
:10004E00601DE51964056017E51964076011E5196F
:10005E006408600BE519640A6005E519B40C0BD34E
:10006E00E51A6480949F404D8048E5196404601140
:10007E00E5196406600BE51964096005E519B40B12
:10008E000BD3E51A6480949E402B8026E519B402AA
:10009E0024E51875F004120498AFF0EF700BD3E559
:1000AE001A6480949D400E8009D3E51A6480949C56
:1000BE004003751A01D3E51B648094974003E4F561
:1000CE001BD3E51C648094BB4003E4F51CD3E51DF3
:1000DE00648094BB4003E4F51DE5246404600302D0
:1000EE0001E274182521F816C3E518648094805037
:1000FE0003751863C3E51964809481500375190C58
:10010E00E51964016023E5196403601DE5196405B2
:10011E006017E51964076011E5196408600BE519AD
:10012E00640A6005E519B40C17C3E51A648094815E
:10013E005003751A1FD3E51A6480949F4072806D28
:10014E00E51964046011E5196406600BE51964098C
:10015E006005E519B40B17C3E51A6480948150034A
:10016E00751A1ED3E51A6480949E4044803FE519AB
:10017E006402703CE51875F004120498AFF0EF704D
:10018E0017C3E51A648094815003751A1DD3E51ABE
:10019E006480949D401A8015C3E51A648094815042
:1001AE0003751A1CD3E51A6480949C4003751A01DA
:1001BE00C3E51B648094805003751B17C3E51C6454
:1001CE008094805003751C3BC3E51D648094805061
:1001DE0003751D3BE5217014E523B4010F7BFF7AF7
:1001EE000979707D017F011208E68011E518FB3355
:1001FE0095E0FA750C027D017F01120927E521B405
:10020E000114E523B4010F7BFF7A0979707D047F19
:10021E00011208E68011E519FB3395E0FA750C0220
:10022E007D047F01120927E521B40214E523B401F0
:10023E000F7BFF7A0979707D077F011208E6801126
:10024E00E51AFB3395E0FA750C027D077F01120962
:10025E0027E521B40314E523B4010F7BFF7A097956
:10026E00707D017F021208E68011E51BFB3395E0DD
:10027E00FA750C027D017F02120927E521B40414E0
:10028E00E523B4010F7BFF7A0979707D047F02129A
:10029E0008E68011E51CFB3395E0FA750C027D042F
:1002AE007F02120927E521B40514E523B4010F7B63
:1002BE00FF7A0979707D077F021208E68011E51D2D
:1002CE00FB3395E0FA750C027D077F02120927E5D4
:1002DE0023FB7A00750C027D0D7F02120927E521A2
:0D02EE00FB7A00750C027D0A7F02020927D1
:1006E30012098512095A7BFF7A0979737D017F010B
:1006F3001208E67BFF7A09797C7D017F021208E606
:100703001200031202FB1203DB8F24E524B401144D
:10071300E5227005752201800BE522B40106E4F59C
:10072300221202FBE5221460080470DA12067A80B2
:06073300D512000E80D07B
:0609AD00C2A58F80D2A755
:0809B3007F027EEFDEFEDFFC97
:0109BB002219
:0A09CA00C2A61209ADC2A70209B3CC
:10090900CFCDCFCECCCE1204F97C007D0A1204F9EA
:04091900ED2430FF9A
:0A091D00D2A61209ADC2A70209B369
:10094400AE07BE0104ED148006BE0209ED243F4447
:0609540080FF1209CA2217
:100985007F381209CA7F0C1209CA7F061209CA7F6D
:04099500010209CA88
:0A09D400AC03120944AF0402091D30
:0608E6008B088A09890A53
:1008EC00120944E4FDAB08AA09A90A8D827583009C
:0C08FC001204BAFF600612091D0D80E90D
:0109080022CC
:0C08B3007F0AEA24FFFDE434FFFC7E0015
:0808BF008E0D8F0E8C0F8D10C1
:1008C7007F017E00E4FBEBC39510E50F6480F874AD
:0E08D7008098500AAC0DAD0E1204E70B80E8BD
:0108E50022F0
:040927008A0A8B0BA2
:10092B00120944AA0CEAD39400400D1208B3AC0A86
:08093B00AD0B1209091A80ED51
:010943002291
:1007D000120944C3EA64809480400B7F2B12091DE8
:1007E0008A168B17800E7F2D12091DC3E49BF51707
:1007F000E49AF516AA15EAD39400400D1208B3AC9A
:0908000016AD171209091A80ED6A
:0108090022CC
:04080A008A278B2886
:10080E00120944AA29EAD3940040297F101208B590
:10081E00AC27AD28CFCDCFCECCCE1204F9EF540FEE
:10082E00FEC3940AEE5004243080022437FF1209CE
:04083E001D1A80D12E
:010842002293
:04087B008A2C8B2D0B
:10087F00120944AA2EEAD394004028EA24FFFDE48B
:10088F0034FFFC7F027E001208BFAC2CAD2DCFCD04
:10089F00CFCECCCE1204F9EF54012430FF12091D34
:0308AF001A80D2DA
:0108B2002223
:0909C0000718160C09010C37059B
:05000300C2B5C2B622E7
:02073900A9070E
:10073B00D2B5E4FB74017E00A803088005C333CE59
:10074B0033CED8F9FFE9F582EF558224FF92B4D26C
:10075B00B6C2B60BBB08DDE4FB74017E00A8030830
:10076B008005C333CE33CED8F9FFEDF582EF55823A
:0E077B0024FF92B4D2B6C2B60BBB08DDC2B5E5
:01078900224D
:08078A00C4540F75F00AA4FC31
:10079200E4FE430701D2B5FDEFA805088002C313AA
:1007A200D8FC1392B4C2B6D2B60DBD08EBE4FDD2AA
:1007B200B6C2B630B40D7401A805088002C333D89E
:0D07C200FC42060DBD08E8C2B5C2B4AF068A
:0107CF002207
:1002FB00E4FD7F8E120739E51875F00A120498C4D5
:10030B0054F0FFE51875F00A120498AEF0EF2EFDCD
:10031B007F8C120739E51975F00A120498C454F052
:10032B00FFE51975F00A120498AEF0EF2EFD7F88E9
:10033B00120739E51A75F00A120498C454F0FFE558
:10034B001A75F00A120498AEF0EF2EFD7F86120795
:10035B0039E51B75F00A120498C454F0FFE51B75C0
:10036B00F00A120498AEF0EF2EFD7F84120739E5E8
:10037B001C75F00A120498C454F0FFE51C75F00AC2
:10038B00120498AEF0EF2EFD7F82120739E51D7532
:10039B00F00A120498C454F0FFE51D75F00A12041C
:1003AB0098AEF0EF2EFD7F80120739E51E75F00A2F
:1003BB00120498C454F0FFE51E75F00A120498AEAF
:1003CB00F0EF2EFD7F8A1207397D807F8E02073971
:10054E007F8C120792EF7F8C12078AEF540F2CF5D7
:10055E00187F88120792EF7F8812078AEF540F2CAC
:10056E00F5197F86120792EFC4540F75F00AA4FC9A
:10057E007F86120792EF540F2CF51A7F8412079282
:10058E00EFC4540F75F00AA4FC7F84120792EF5447
:10059E000F2CF51B7F82120792EFC4540F75F00AD1
:1005AE00A4FC7F82120792EF540F2CF51C7F801251
:1005BE000792EFC4540F75F00AA4FC7F80120792C5
:1005CE00EF540F2CF51D7F8A120792EFC4540F754E
:1005DE00F00AA4FC7F8A120792EF540F2CF51E220C
:10099900EF4E600F7D027CEFDCFEDDFCEF1F70F097
:0309A9001E80EDC0
:0109AC002228
:1003DB00E4F5082090137F14FE1209993090FD7FED
:1003EB00147E001209997508012091147F147E0068
:1003FB001209993091FD7F147E001209997508023C
:10040B002092147F147E001209993092FD7F147E86
:10041B00001209997508032093147F147E001209AA
:10042B00993093FD7F147E0012099975080420946E
:10043B00147F147E001209993094FD7F147E0012F4
:10044B0009997508052095147F147E0012099930BF
:10045B0095FD7F147E001209997508062096147F6E
:10046B00147E001209993096FD7F147E00120999B3
:10047B007508072097147F147E001209993097FD99
:0C048B007F147E00120999750808AF0864
:010497002242
:10095A005389F0438901758A20758CD1C28DD28C56
:06096A0075A882C2B9224B
:030000000205EE08
:0C05EE00787FE4F6D8FD75812E020635FA
:10049800C2D530F707B2D563F0FF05F030E70CB2EC
:1004A800D5F4048463F0FF05F080018430D502F4AC
:0204B80004221C
:1004BA00BB010CE58229F582E5833AF583E02250F7
:1004CA0006E92582F8E622BBFE06E92582F8E22241
:0D04DA00E58229F582E5833AF583E493225B
:1004E700EF8DF0A4A8F0CF8CF0A428CE8DF0A42E29
:0204F700FE22E3
:1004F900BC000BBE0029EF8DF084FFADF022E4CCE7
:10050900F875F008EF2FFFEE33FEEC33FCEE9DECAF
:10051900984005FCEE9DFE0FD5F0E9E4CEFD22EDF5
:10052900F8F5F0EE8420D21CFEADF075F008EF2F3F
:10053900FFED33FD4007985006D5F0F222C398FD30
:050549000FD5F0EA22CD
:1005FA000206E3E493A3F8E493A34003F68001F22E
:10060A0008DFF48029E493A3F85407240CC8C33301
:10061A00C4540F4420C8834004F456800146F6DFD0
:10062A00E4800B01020408102040809009BCE47E9B
:10063A00019360BCA3FF543F30E509541FFEE493C5
:10064A00A360010ECF54C025E060A840B8E493A38C
:10065A00FAE493A3F8E493A3C8C582C8CAC583CAB7
:10066A00F0A3C8C582C8CAC583CADFE9DEE780BE6F
:0109C900002D
:00000001FF
