:07012400011B00021900009D
:0F01690012013FE51BFD7C007F0412009A80F419
:03000B000200FDF3
:0400FD00C0E0C0D0CF
:10010100051AE51A70020519B4F40DE519B40108D0
:0E011100051B751900751A00758CD1758A20B2
:05011F00D0D0D0E03259
:10012B0011083F065B4F666D7D077F6F777C395EED
:03013B00797100D7
:10009A00EF14B4080050549000AF75F003A4C58360
:1000AA0025F0C583730200C70200CB0200D3020009
:1000BA00D70200DF0200E30200EB0200EFC2A080D9
:1000CA0002D2A0C2A1C2A28022C2A08002D2A0D221
:1000DA00A1C2A28016C2A08002D2A0C2A1D2A280CE
:1000EA000AC2A08002D2A0D2A1D2A274082DF8E638
:0300FA00F580226C
:10013F005389F0438901758A20758CD1C28DD28C79
:06014F0075A882C2B9226E
:10015500EF4E600F7D027CEFDCFEDDFCEF1F70F0E3
:030165001E80ED0C
:010168002274
:0300000002000EED
:0C000E00787FE4F6D8FD75811B020055D8
:10001A00020169E493A3F8E493A34003F68001F292
:10002A0008DFF48029E493A3F85407240CC8C333E7
:10003A00C4540F4420C8834004F456800146F6DFB6
:10004A00E4800B0102040810204080900124E47E21
:10005A00019360BCA3FF543F30E509541FFEE493AB
:10006A00A360010ECF54C025E060A840B8E493A372
:10007A00FAE493A3F8E493A3C8C582C8CAC583CA9D
:10008A00F0A3C8C582C8CAC583CADFE9DEE780BE55
:01013E0000C0
:00000001FF
