:10027B007519011200038F1BE51B60F7FD7C00AFA6
:06028B001912021880EDBB
:10029100EF4E600F7D027CEFDCFEDDFCEF1F70F0A6
:0302A1001E80EDCF
:0102A4002237
:10000300E4F51A7590FFC2942090137F14FE120238
:10001300913090FD7F147E00120291751A01209198
:10002300147F147E001202913091FD7F147E001222
:100033000291751A052092147F147E0012029130EA
:1000430092FD7F147E00120291751A092093147F8A
:10005300147E001202913093FD7F147E00120291F0
:10006300751A0D7590FFC2952090147F147E0012AF
:1000730002913090FD7F147E00120291751A0220C6
:1000830091147F147E001202913091FD7F147E0043
:10009300120291751A062092147F147E00120291A7
:1000A3003092FD7F147E00120291751A0A20931478
:1000B3007F147E001202913093FD7F147E001202A2
:1000C30091751A0E7590FFC2962090147F147E00CE
:1000D3001202913090FD7F147E00120291751A0373
:1000E3002091147F147E001202913091FD7F147EC3
:1000F30000120291751A072092147F147E001202D7
:10010300913092FD7F147E00120291751A0B209399
:10011300147F147E001202913093FD7F147E00122F
:100123000291751A0F7590FFC2972090147F147E69
:10013300001202913090FD7F147E00120291751A15
:10014300042091147F147E001202913091FD7F14DC
:100153007E00120291751A082092147F147E0012F9
:1001630002913092FD7F147E00120291751A0C20C9
:1001730093147F147E001202913093FD7F147E004E
:08018300120291751A10AF1A67
:01018B002251
:1002A50011083F065B4F666D7D077F6F777C395E72
:0302B5007971005C
:10021800EF14B40800505490022D75F003A4C58360
:1002280025F0C58373020245020249020251020207
:100238005502025D02026102026902026DC2A080DB
:1002480002D2A0C2A1C2A28022C2A08002D2A0D2A1
:10025800A1C2A28016C2A08002D2A0C2A1D2A2804E
:100268000AC2A08002D2A0D2A1D2A274082DF8E6B8
:03027800F58022EC
:0300000002018C6E
:0C018C00787FE4F6D8FD75811B0201D3DA
:1001980002027BE493A3F8E493A34003F68001F200
:1001A80008DFF48029E493A3F85407240CC8C33368
:1001B800C4540F4420C8834004F456800146F6DF37
:1001C800E4800B01020408102040809002A5E47E20
:1001D800019360BCA3FF543F30E509541FFEE4932C
:1001E800A360010ECF54C025E060A840B8E493A3F3
:1001F800FAE493A3F8E493A3C8C582C8CAC583CA1E
:10020800F0A3C8C582C8CAC583CADFE9DEE780BED5
:0102B8000045
:00000001FF
